{
  "contractName": "MyTokenSale",
  "abi": [
    {
      "inputs": [
        {
          "internalType": "uint256",
          "name": "rate",
          "type": "uint256"
        },
        {
          "internalType": "address payable",
          "name": "wallet",
          "type": "address"
        },
        {
          "internalType": "contract IERC20",
          "name": "token",
          "type": "address"
        },
        {
          "internalType": "contract KycContract",
          "name": "_kyc",
          "type": "address"
        }
      ],
      "payable": false,
      "stateMutability": "nonpayable",
      "type": "constructor"
    },
    {
      "anonymous": false,
      "inputs": [
        {
          "indexed": true,
          "internalType": "address",
          "name": "previousOwner",
          "type": "address"
        },
        {
          "indexed": true,
          "internalType": "address",
          "name": "newOwner",
          "type": "address"
        }
      ],
      "name": "OwnershipTransferred",
      "type": "event"
    },
    {
      "anonymous": false,
      "inputs": [
        {
          "indexed": true,
          "internalType": "address",
          "name": "purchaser",
          "type": "address"
        },
        {
          "indexed": true,
          "internalType": "address",
          "name": "beneficiary",
          "type": "address"
        },
        {
          "indexed": false,
          "internalType": "uint256",
          "name": "value",
          "type": "uint256"
        },
        {
          "indexed": false,
          "internalType": "uint256",
          "name": "amount",
          "type": "uint256"
        }
      ],
      "name": "TokensPurchased",
      "type": "event"
    },
    {
      "payable": true,
      "stateMutability": "payable",
      "type": "fallback"
    },
    {
      "constant": false,
      "inputs": [
        {
          "internalType": "address",
          "name": "beneficiary",
          "type": "address"
        }
      ],
      "name": "buyTokens",
      "outputs": [],
      "payable": true,
      "stateMutability": "payable",
      "type": "function"
    },
    {
      "constant": true,
      "inputs": [],
      "name": "isOwner",
      "outputs": [
        {
          "internalType": "bool",
          "name": "",
          "type": "bool"
        }
      ],
      "payable": false,
      "stateMutability": "view",
      "type": "function"
    },
    {
      "constant": true,
      "inputs": [],
      "name": "owner",
      "outputs": [
        {
          "internalType": "address",
          "name": "",
          "type": "address"
        }
      ],
      "payable": false,
      "stateMutability": "view",
      "type": "function"
    },
    {
      "constant": true,
      "inputs": [],
      "name": "rate",
      "outputs": [
        {
          "internalType": "uint256",
          "name": "",
          "type": "uint256"
        }
      ],
      "payable": false,
      "stateMutability": "view",
      "type": "function"
    },
    {
      "constant": false,
      "inputs": [],
      "name": "renounceOwnership",
      "outputs": [],
      "payable": false,
      "stateMutability": "nonpayable",
      "type": "function"
    },
    {
      "constant": true,
      "inputs": [],
      "name": "token",
      "outputs": [
        {
          "internalType": "contract IERC20",
          "name": "",
          "type": "address"
        }
      ],
      "payable": false,
      "stateMutability": "view",
      "type": "function"
    },
    {
      "constant": false,
      "inputs": [
        {
          "internalType": "address",
          "name": "newOwner",
          "type": "address"
        }
      ],
      "name": "transferOwnership",
      "outputs": [],
      "payable": false,
      "stateMutability": "nonpayable",
      "type": "function"
    },
    {
      "constant": true,
      "inputs": [],
      "name": "wallet",
      "outputs": [
        {
          "internalType": "address payable",
          "name": "",
          "type": "address"
        }
      ],
      "payable": false,
      "stateMutability": "view",
      "type": "function"
    },
    {
      "constant": true,
      "inputs": [],
      "name": "weiRaised",
      "outputs": [
        {
          "internalType": "uint256",
          "name": "",
          "type": "uint256"
        }
      ],
      "payable": false,
      "stateMutability": "view",
      "type": "function"
    },
    {
      "constant": false,
      "inputs": [
        {
          "internalType": "address",
          "name": "beneficiary",
          "type": "address"
        },
        {
          "internalType": "uint256",
          "name": "tokenAmount",
          "type": "uint256"
        }
      ],
      "name": "deliverTokens",
      "outputs": [],
      "payable": true,
      "stateMutability": "payable",
      "type": "function"
    },
    {
      "constant": false,
      "inputs": [
        {
          "internalType": "address[]",
          "name": "beneficiaryList",
          "type": "address[]"
        },
        {
          "internalType": "uint256[]",
          "name": "amountList",
          "type": "uint256[]"
        }
      ],
      "name": "bulkDeliverTokens",
      "outputs": [],
      "payable": true,
      "stateMutability": "payable",
      "type": "function"
    },
    {
      "constant": true,
      "inputs": [
        {
          "internalType": "address[]",
          "name": "accountList",
          "type": "address[]"
        }
      ],
      "name": "kycCompletedOf",
      "outputs": [
        {
          "internalType": "bool[]",
          "name": "",
          "type": "bool[]"
        }
      ],
      "payable": false,
      "stateMutability": "view",
      "type": "function"
    }
  ],
  "bytecode": "0x60806040523480156200001157600080fd5b5060405162001d5338038062001d53833981810160405260808110156200003757600080fd5b810190808051906020019092919080519060200190929190805190602001909291908051906020019092919050505083838360016000806101000a81548160ff02191690831515021790555060008311620000fa576040517f08c379a00000000000000000000000000000000000000000000000000000000081526004018080602001828103825260148152602001807f43726f776473616c653a2072617465206973203000000000000000000000000081525060200191505060405180910390fd5b600073ffffffffffffffffffffffffffffffffffffffff168273ffffffffffffffffffffffffffffffffffffffff16141562000182576040517f08c379a000000000000000000000000000000000000000000000000000000000815260040180806020018281038252602581526020018062001d2e6025913960400191505060405180910390fd5b600073ffffffffffffffffffffffffffffffffffffffff168173ffffffffffffffffffffffffffffffffffffffff1614156200020a576040517f08c379a000000000000000000000000000000000000000000000000000000000815260040180806020018281038252602481526020018062001d0a6024913960400191505060405180910390fd5b8260028190555081600160006101000a81548173ffffffffffffffffffffffffffffffffffffffff021916908373ffffffffffffffffffffffffffffffffffffffff16021790555080600060016101000a81548173ffffffffffffffffffffffffffffffffffffffff021916908373ffffffffffffffffffffffffffffffffffffffff1602179055505050506000620002a86200039260201b60201c565b905080600460006101000a81548173ffffffffffffffffffffffffffffffffffffffff021916908373ffffffffffffffffffffffffffffffffffffffff1602179055508073ffffffffffffffffffffffffffffffffffffffff16600073ffffffffffffffffffffffffffffffffffffffff167f8be0079c531659141344cd1fd0a4f28419497f9722a3daafe3b4186f6b6457e060405160405180910390a35080600560006101000a81548173ffffffffffffffffffffffffffffffffffffffff021916908373ffffffffffffffffffffffffffffffffffffffff160217905550505050506200039a565b600033905090565b61196080620003aa6000396000f3fe6080604052600436106100a75760003560e01c80638da5cb5b116100645780638da5cb5b146102e55780638f32d59b1461033c578063e521b8681461036b578063ec8ac4d814610439578063f2fde38b1461047d578063fc0c546a146104ce576100a7565b80632c4e722e146100b95780633b30c8f3146100e45780634042b66f146101fe5780634dd49e0814610229578063521eb27314610277578063715018a6146102ce575b6100b76100b2610525565b61052d565b005b3480156100c557600080fd5b506100ce6106b8565b6040518082815260200191505060405180910390f35b3480156100f057600080fd5b506101a76004803603602081101561010757600080fd5b810190808035906020019064010000000081111561012457600080fd5b82018360208201111561013657600080fd5b8035906020019184602083028401116401000000008311171561015857600080fd5b919080806020026020016040519081016040528093929190818152602001838360200280828437600081840152601f19601f8201169050808301925050505050505091929192905050506106c2565b6040518080602001828103825283818151815260200191508051906020019060200280838360005b838110156101ea5780820151818401526020810190506101cf565b505050509050019250505060405180910390f35b34801561020a57600080fd5b5061021361082f565b6040518082815260200191505060405180910390f35b6102756004803603604081101561023f57600080fd5b81019080803573ffffffffffffffffffffffffffffffffffffffff16906020019092919080359060200190929190505050610839565b005b34801561028357600080fd5b5061028c6109f0565b604051808273ffffffffffffffffffffffffffffffffffffffff1673ffffffffffffffffffffffffffffffffffffffff16815260200191505060405180910390f35b3480156102da57600080fd5b506102e3610a1a565b005b3480156102f157600080fd5b506102fa610b55565b604051808273ffffffffffffffffffffffffffffffffffffffff1673ffffffffffffffffffffffffffffffffffffffff16815260200191505060405180910390f35b34801561034857600080fd5b50610351610b7f565b604051808215151515815260200191505060405180910390f35b6104376004803603604081101561038157600080fd5b810190808035906020019064010000000081111561039e57600080fd5b8201836020820111156103b057600080fd5b803590602001918460208302840111640100000000831117156103d257600080fd5b9091929391929390803590602001906401000000008111156103f357600080fd5b82018360208201111561040557600080fd5b8035906020019184602083028401116401000000008311171561042757600080fd5b9091929391929390505050610bde565b005b61047b6004803603602081101561044f57600080fd5b81019080803573ffffffffffffffffffffffffffffffffffffffff16906020019092919050505061052d565b005b34801561048957600080fd5b506104cc600480360360208110156104a057600080fd5b81019080803573ffffffffffffffffffffffffffffffffffffffff169060200190929190505050610e5a565b005b3480156104da57600080fd5b506104e3610ee0565b604051808273ffffffffffffffffffffffffffffffffffffffff1673ffffffffffffffffffffffffffffffffffffffff16815260200191505060405180910390f35b600033905090565b6000809054906101000a900460ff166105ae576040517f08c379a000000000000000000000000000000000000000000000000000000000815260040180806020018281038252601f8152602001807f5265656e7472616e637947756172643a207265656e7472616e742063616c6c0081525060200191505060405180910390fd5b60008060006101000a81548160ff02191690831515021790555060003490506105d78282610f09565b60006105e282611046565b90506105f98260035461106490919063ffffffff16565b60038190555061060983826110ec565b8273ffffffffffffffffffffffffffffffffffffffff16610628610525565b73ffffffffffffffffffffffffffffffffffffffff167f6faf93231a456e552dbc9961f58d9713ee4f2e69d15f1975b050ef0911053a7b8484604051808381526020018281526020019250505060405180910390a361068783836110fa565b61068f6110fe565b6106998383611169565b505060016000806101000a81548160ff02191690831515021790555050565b6000600254905090565b60608082516040519080825280602002602001820160405280156106f55781602001602082028038833980820191505090505b50905060008090505b835181101561082557600084828151811061071557fe5b60200260200101519050600560009054906101000a900473ffffffffffffffffffffffffffffffffffffffff1673ffffffffffffffffffffffffffffffffffffffff1663df235fe4826040518263ffffffff1660e01b8152600401808273ffffffffffffffffffffffffffffffffffffffff1673ffffffffffffffffffffffffffffffffffffffff16815260200191505060206040518083038186803b1580156107be57600080fd5b505afa1580156107d2573d6000803e3d6000fd5b505050506040513d60208110156107e857600080fd5b810190808051906020019092919050505083838151811061080557fe5b6020026020010190151590811515815250505080806001019150506106fe565b5080915050919050565b6000600354905090565b610841610b7f565b6108b3576040517f08c379a00000000000000000000000000000000000000000000000000000000081526004018080602001828103825260208152602001807f4f776e61626c653a2063616c6c6572206973206e6f7420746865206f776e657281525060200191505060405180910390fd5b600560009054906101000a900473ffffffffffffffffffffffffffffffffffffffff1673ffffffffffffffffffffffffffffffffffffffff1663df235fe4836040518263ffffffff1660e01b8152600401808273ffffffffffffffffffffffffffffffffffffffff1673ffffffffffffffffffffffffffffffffffffffff16815260200191505060206040518083038186803b15801561095257600080fd5b505afa158015610966573d6000803e3d6000fd5b505050506040513d602081101561097c57600080fd5b81019080805190602001909291905050506109e2576040517f08c379a000000000000000000000000000000000000000000000000000000000815260040180806020018281038252603a81526020018061189e603a913960400191505060405180910390fd5b6109ec828261116d565b5050565b6000600160009054906101000a900473ffffffffffffffffffffffffffffffffffffffff16905090565b610a22610b7f565b610a94576040517f08c379a00000000000000000000000000000000000000000000000000000000081526004018080602001828103825260208152602001807f4f776e61626c653a2063616c6c6572206973206e6f7420746865206f776e657281525060200191505060405180910390fd5b600073ffffffffffffffffffffffffffffffffffffffff16600460009054906101000a900473ffffffffffffffffffffffffffffffffffffffff1673ffffffffffffffffffffffffffffffffffffffff167f8be0079c531659141344cd1fd0a4f28419497f9722a3daafe3b4186f6b6457e060405160405180910390a36000600460006101000a81548173ffffffffffffffffffffffffffffffffffffffff021916908373ffffffffffffffffffffffffffffffffffffffff160217905550565b6000600460009054906101000a900473ffffffffffffffffffffffffffffffffffffffff16905090565b6000600460009054906101000a900473ffffffffffffffffffffffffffffffffffffffff1673ffffffffffffffffffffffffffffffffffffffff16610bc2610525565b73ffffffffffffffffffffffffffffffffffffffff1614905090565b610be6610b7f565b610c58576040517f08c379a00000000000000000000000000000000000000000000000000000000081526004018080602001828103825260208152602001807f4f776e61626c653a2063616c6c6572206973206e6f7420746865206f776e657281525060200191505060405180910390fd5b818190508484905014610cb6576040517f08c379a000000000000000000000000000000000000000000000000000000000815260040180806020018281038252603d815260200180611819603d913960400191505060405180910390fd5b60008090505b84849050811015610e53576000858583818110610cd557fe5b9050602002013573ffffffffffffffffffffffffffffffffffffffff1690506000848484818110610d0257fe5b905060200201359050600560009054906101000a900473ffffffffffffffffffffffffffffffffffffffff1673ffffffffffffffffffffffffffffffffffffffff1663df235fe4836040518263ffffffff1660e01b8152600401808273ffffffffffffffffffffffffffffffffffffffff1673ffffffffffffffffffffffffffffffffffffffff16815260200191505060206040518083038186803b158015610daa57600080fd5b505afa158015610dbe573d6000803e3d6000fd5b505050506040513d6020811015610dd457600080fd5b8101908080519060200190929190505050610e3a576040517f08c379a000000000000000000000000000000000000000000000000000000000815260040180806020018281038252603a81526020018061189e603a913960400191505060405180910390fd5b610e44828261116d565b50508080600101915050610cbc565b5050505050565b610e62610b7f565b610ed4576040517f08c379a00000000000000000000000000000000000000000000000000000000081526004018080602001828103825260208152602001807f4f776e61626c653a2063616c6c6572206973206e6f7420746865206f776e657281525060200191505060405180910390fd5b610edd816111be565b50565b60008060019054906101000a900473ffffffffffffffffffffffffffffffffffffffff16905090565b610f138282611304565b600560009054906101000a900473ffffffffffffffffffffffffffffffffffffffff1673ffffffffffffffffffffffffffffffffffffffff1663df235fe4336040518263ffffffff1660e01b8152600401808273ffffffffffffffffffffffffffffffffffffffff1673ffffffffffffffffffffffffffffffffffffffff16815260200191505060206040518083038186803b158015610fb257600080fd5b505afa158015610fc6573d6000803e3d6000fd5b505050506040513d6020811015610fdc57600080fd5b8101908080519060200190929190505050611042576040517f08c379a00000000000000000000000000000000000000000000000000000000081526004018080602001828103825260278152602001806118566027913960400191505060405180910390fd5b5050565b600061105d6002548361140590919063ffffffff16565b9050919050565b6000808284019050838110156110e2576040517f08c379a000000000000000000000000000000000000000000000000000000000815260040180806020018281038252601b8152602001807f536166654d6174683a206164646974696f6e206f766572666c6f77000000000081525060200191505060405180910390fd5b8091505092915050565b6110f6828261116d565b5050565b5050565b600160009054906101000a900473ffffffffffffffffffffffffffffffffffffffff1673ffffffffffffffffffffffffffffffffffffffff166108fc349081150290604051600060405180830381858888f19350505050158015611166573d6000803e3d6000fd5b50565b5050565b6111ba8282600060019054906101000a900473ffffffffffffffffffffffffffffffffffffffff1673ffffffffffffffffffffffffffffffffffffffff1661148b9092919063ffffffff16565b5050565b600073ffffffffffffffffffffffffffffffffffffffff168173ffffffffffffffffffffffffffffffffffffffff161415611244576040517f08c379a00000000000000000000000000000000000000000000000000000000081526004018080602001828103825260268152602001806117f36026913960400191505060405180910390fd5b8073ffffffffffffffffffffffffffffffffffffffff16600460009054906101000a900473ffffffffffffffffffffffffffffffffffffffff1673ffffffffffffffffffffffffffffffffffffffff167f8be0079c531659141344cd1fd0a4f28419497f9722a3daafe3b4186f6b6457e060405160405180910390a380600460006101000a81548173ffffffffffffffffffffffffffffffffffffffff021916908373ffffffffffffffffffffffffffffffffffffffff16021790555050565b600073ffffffffffffffffffffffffffffffffffffffff168273ffffffffffffffffffffffffffffffffffffffff16141561138a576040517f08c379a000000000000000000000000000000000000000000000000000000000815260040180806020018281038252602a8152602001806118d8602a913960400191505060405180910390fd5b6000811415611401576040517f08c379a00000000000000000000000000000000000000000000000000000000081526004018080602001828103825260198152602001807f43726f776473616c653a20776569416d6f756e7420697320300000000000000081525060200191505060405180910390fd5b5050565b6000808314156114185760009050611485565b600082840290508284828161142957fe5b0414611480576040517f08c379a000000000000000000000000000000000000000000000000000000000815260040180806020018281038252602181526020018061187d6021913960400191505060405180910390fd5b809150505b92915050565b611557838473ffffffffffffffffffffffffffffffffffffffff1663a9059cbb905060e01b8484604051602401808373ffffffffffffffffffffffffffffffffffffffff1673ffffffffffffffffffffffffffffffffffffffff16815260200182815260200192505050604051602081830303815290604052907bffffffffffffffffffffffffffffffffffffffffffffffffffffffff19166020820180517bffffffffffffffffffffffffffffffffffffffffffffffffffffffff838183161783525050505061155c565b505050565b61157b8273ffffffffffffffffffffffffffffffffffffffff166117a7565b6115ed576040517f08c379a000000000000000000000000000000000000000000000000000000000815260040180806020018281038252601f8152602001807f5361666545524332303a2063616c6c20746f206e6f6e2d636f6e74726163740081525060200191505060405180910390fd5b600060608373ffffffffffffffffffffffffffffffffffffffff16836040518082805190602001908083835b6020831061163c5780518252602082019150602081019050602083039250611619565b6001836020036101000a0380198251168184511680821785525050505050509050019150506000604051808303816000865af19150503d806000811461169e576040519150601f19603f3d011682016040523d82523d6000602084013e6116a3565b606091505b50915091508161171b576040517f08c379a00000000000000000000000000000000000000000000000000000000081526004018080602001828103825260208152602001807f5361666545524332303a206c6f772d6c6576656c2063616c6c206661696c656481525060200191505060405180910390fd5b6000815111156117a15780806020019051602081101561173a57600080fd5b81019080805190602001909291905050506117a0576040517f08c379a000000000000000000000000000000000000000000000000000000000815260040180806020018281038252602a815260200180611902602a913960400191505060405180910390fd5b5b50505050565b60008060007fc5d2460186f7233c927e7db2dcc703c0e500b653ca82273b7bfad8045d85a47060001b9050833f91508082141580156117e957506000801b8214155b9250505091905056fe4f776e61626c653a206e6577206f776e657220697320746865207a65726f206164647265737341727261792073697a6573206f662062656e656669636961727920616e6420746f6b656e416d6f756e742073686f756c64206265207468652073616d654b5943204e6f7420636f6d706c657465642c207075726368617365206e6f7420616c6c6f776564536166654d6174683a206d756c7469706c69636174696f6e206f766572666c6f774b5943206f6620746869732062656e6566696369617279206e6f7420636f6d706c657465642c2064656c69766572206e6f7420616c6c6f77656443726f776473616c653a2062656e656669636961727920697320746865207a65726f20616464726573735361666545524332303a204552433230206f7065726174696f6e20646964206e6f742073756363656564a265627a7a723158202efbf10e00eb4c8b0165c9374e6351df744dfec7e363403937c911fdae380ffc64736f6c6343000511003243726f776473616c653a20746f6b656e20697320746865207a65726f206164647265737343726f776473616c653a2077616c6c657420697320746865207a65726f2061646472657373",
  "source": "pragma solidity ^0.5.0;\r\n\r\nimport \"./KycContract.sol\";\r\nimport \"@openzeppelin/contracts/crowdsale/Crowdsale.sol\";\r\nimport \"@openzeppelin/contracts/ownership/Ownable.sol\";\r\n\r\ncontract MyTokenSale is Crowdsale, Ownable {\r\n\r\n    KycContract kyc;\r\n\r\n    constructor(\r\n        uint256 rate,    // rate in TKNbits\r\n        address payable wallet,\r\n        IERC20 token,\r\n        KycContract _kyc\r\n    )\r\n        Crowdsale(rate, wallet, token)\r\n        public\r\n    {\r\n        kyc = _kyc;\r\n\r\n    }\r\n\r\n    function _preValidatePurchase(address beneficiary, uint256 weiAmount) internal view  {\r\n        super._preValidatePurchase(beneficiary, weiAmount);\r\n        require(kyc.kycCompleted(msg.sender), \"KYC Not completed, purchase not allowed\");\r\n    }\r\n    function deliverTokens(address beneficiary, uint256 tokenAmount) external payable onlyOwner {\r\n        require(kyc.kycCompleted(beneficiary), \"KYC of this beneficiary not completed, deliver not allowed\");\r\n        super._deliverTokens(beneficiary, tokenAmount);\r\n    }         \r\n    function bulkDeliverTokens(address[] calldata beneficiaryList, uint256[] calldata amountList) external payable onlyOwner {\r\n        require(beneficiaryList.length == amountList.length, \"Array sizes of beneficiary and tokenAmount should be the same\");\r\n        for (uint j = 0; j < beneficiaryList.length; j++) {\r\n            address beneficiary = beneficiaryList[j];\r\n            uint256 tokenAmount = amountList[j];\r\n            require(kyc.kycCompleted(beneficiary), \"KYC of this beneficiary not completed, deliver not allowed\");\r\n            super._deliverTokens(beneficiary, tokenAmount);\r\n        }        \r\n    } \r\n    function kycCompletedOf(address[] memory accountList) public view returns (bool[] memory) {\r\n        bool[] memory kycCompleteds = new bool[](accountList.length);\r\n\r\n        for (uint j = 0; j < accountList.length; j++) {\r\n            address account = accountList[j];\r\n            kycCompleteds[j] = kyc.kycCompleted(account);\r\n        }          \r\n        return kycCompleteds;\r\n    }    \r\n}",
  "sourcePath": "/Users/tuandang/tuanfolder/research/blockchain/asset-tokenization/contracts/MyTokenSale.sol",
  "compiler": {
    "name": "solc",
    "version": "0.5.17+commit.d19bba13.Emscripten.clang"
  },
  "schemaVersion": "3.4.1",
  "updatedAt": "2021-07-08T19:44:53.632Z",
  "networkType": "ethereum",
  "devdoc": {
    "methods": {
      "buyTokens(address)": {
        "details": "low level token purchase ***DO NOT OVERRIDE*** This function has a non-reentrancy guard, so it shouldn't be called by another `nonReentrant` function.",
        "params": {
          "beneficiary": "Recipient of the token purchase"
        }
      },
      "isOwner()": {
        "details": "Returns true if the caller is the current owner."
      },
      "owner()": {
        "details": "Returns the address of the current owner."
      },
      "rate()": {
        "return": "the number of token units a buyer gets per wei."
      },
      "renounceOwnership()": {
        "details": "Leaves the contract without owner. It will not be possible to call `onlyOwner` functions anymore. Can only be called by the current owner.     * NOTE: Renouncing ownership will leave the contract without an owner, thereby removing any functionality that is only available to the owner."
      },
      "token()": {
        "return": "the token being sold."
      },
      "transferOwnership(address)": {
        "details": "Transfers ownership of the contract to a new account (`newOwner`). Can only be called by the current owner."
      },
      "wallet()": {
        "return": "the address where funds are collected."
      },
      "weiRaised()": {
        "return": "the amount of wei raised."
      }
    }
  },
  "userdoc": {
    "methods": {}
  }
}